{
  "contractName": "Verification",
  "abi": [
    {
      "constant": true,
      "inputs": [
        {
          "internalType": "bytes32",
          "name": "hash",
          "type": "bytes32"
        },
        {
          "internalType": "bytes",
          "name": "signature",
          "type": "bytes"
        }
      ],
      "name": "recover",
      "outputs": [
        {
          "internalType": "address",
          "name": "",
          "type": "address"
        }
      ],
      "payable": false,
      "stateMutability": "pure",
      "type": "function"
    }
  ],
  "bytecode": "0x608060405234801561001057600080fd5b5061024c806100206000396000f3fe608060405234801561001057600080fd5b506004361061002b5760003560e01c806319045a2514610030575b600080fd5b6100f36004803603604081101561004657600080fd5b81019080803590602001909291908035906020019064010000000081111561006d57600080fd5b82018360208201111561007f57600080fd5b803590602001918460018302840111640100000000831117156100a157600080fd5b91908080601f016020809104026020016040519081016040528093929190818152602001838380828437600081840152601f19601f820116905080830192505050505050509192919290505050610135565b604051808273ffffffffffffffffffffffffffffffffffffffff1673ffffffffffffffffffffffffffffffffffffffff16815260200191505060405180910390f35b60008060008060418551146101505760009350505050610211565b6020850151925060408501519150606085015160001a9050601b8160ff16101561017b57601b810190505b601b8160ff16141580156101935750601c8160ff1614155b156101a45760009350505050610211565b60018682858560405160008152602001604052604051808581526020018460ff1660ff1681526020018381526020018281526020019450505050506020604051602081039080840390855afa158015610201573d6000803e3d6000fd5b5050506020604051035193505050505b9291505056fea265627a7a723158205871394d64aabcab7c8724c422d27034f0ee532ba0e22e9b132cb1419adf396664736f6c63430005100032",
  "source": "pragma solidity ^0.5.0;\n\ncontract Verification {\n    /**\n     * Based upon ECDSA library from OpenZeppelin Solidity\n     * https://github.com/OpenZeppelin/openzeppelin-solidity/blob/master/contracts/cryptography/ECDSA.sol\n     */\n\n    /**\n     * @dev Recover signer address from a message by using their signature\n     * @param hash bytes32 message, the hash is the signed message. What is recovered is the signer address.\n     * @param signature bytes signature, the signature is generated using web3.eth.sign()\n     */\n    function recover(bytes32 hash, bytes memory signature)\n        public\n        pure\n        returns (address)\n    {\n        bytes32 r;\n        bytes32 s;\n        uint8 v;\n\n        // Check the signature length\n        if (signature.length != 65) {\n            return (address(0));\n        }\n\n        // Divide the signature in r, s and v variables\n        // ecrecover takes the signature parameters, and the only way to get them\n        // currently is to use assembly.\n        // solium-disable-next-line security/no-inline-assembly\n        assembly {\n            r := mload(add(signature, 0x20))\n            s := mload(add(signature, 0x40))\n            v := byte(0, mload(add(signature, 0x60)))\n        }\n\n        // Version of signature should be 27 or 28, but 0 and 1 are also possible versions\n        if (v < 27) {\n            v += 27;\n        }\n\n        // If the version is correct return the signer address\n        if (v != 27 && v != 28) {\n            return (address(0));\n        } else {\n            // solium-disable-next-line arg-overflow\n            return ecrecover(hash, v, r, s);\n        }\n    }\n}\n",
  "sourcePath": "/media/dinesh/Workstations/Blockchain/Ethereum Projects/Sig-verify/src/contracts/Verification.sol",
  "compiler": {
    "name": "solc",
    "version": "0.5.16+commit.9c3226ce.Emscripten.clang"
  },
  "schemaVersion": "3.0.23",
  "updatedAt": "2020-07-14T12:01:51.399Z",
  "networkType": "ethereum",
  "devdoc": {
    "methods": {
      "recover(bytes32,bytes)": {
        "details": "Recover signer address from a message by using their signature",
        "params": {
          "hash": "bytes32 message, the hash is the signed message. What is recovered is the signer address.",
          "signature": "bytes signature, the signature is generated using web3.eth.sign()"
        }
      }
    }
  },
  "userdoc": {
    "methods": {}
  }
}